:10034600C0F9A4B0999282F88090FF4079243019C0
:060356001202780010FF06
:0C035C00020D0000010900010800C18032
:080373008F993099FDC2992217
:05037B00C298AF9922B9
:10032F00758920758DFD758BFDC29FD29ED29CE481
:07033F00F587D28EC2AC224B
:0A036900EFD3940040031F80F72239
:100262007C007D0AAF03AE0212011D74462FF58297
:0B02720074033EF583E493F5807F05E4
:0D027D00EFD3940040077E7DDEFE1F80F36E
:01028A002251
:1002D400E4FED2B67F08120369C2B67F50120369E6
:1002E400D2B67F05120369A2B6E433FE7F1402037B
:0102F40069A0
:10028B00E4FD7E08D2B67F01120369C2B6EDC3133B
:10029B00FDD2B630B6034305807F04120369DEE45A
:0402AB00AF057E001D
:0102AF00222C
:02031300AE0733
:100315007D08C2B6EE1392B67F05120369D2B6EE1A
:0A032500C313FEDDED7F040203693F
:100003001202D47FCC1203137F441203137F7D1299
:1000130003691202D47FCC1203137FBE120313129F
:10002300028B8F0912028B8F08E508D3947F400B54
:100033006309FFE508F404F508C200E509C4540F99
:10004300FD7C00E50875F010A4AEF02DF50CEC3E38
:10005300F50BE509540FFD75F00AA4FFE5F0C4F8AC
:1000630054F0C8EFC4540F48F50FED75F064A4FFC6
:10007300E5F0C4F854F0C8EFC4540F4875F00A848F
:0E00830085F010E50F75F00AA42510F50A228D
:1001A800AB07AA0630003E75A0EF1202627580FF09
:1001B80075A0DF7C007D0AAF03AE0212011D7451E9
:1001C8002DF58274033C1202757580FF75A0BFE59A
:1001D8000F9003461202787580FF75A07FE5101214
:1001E80002787580FF20003F75A0FE90035112022F
:1001F800777580FF75A0FD1202627580FF75A0FB00
:10020800AE02AF037C007D0A12011D74512DF582E8
:1002180074033C1202757580FF75A0F7E50F900313
:08022800461202787580FF22E6
:1002B000AB07AA067C007D0A120172EF2430FF1200
:1002C0000373AE02AF037C007D0A120172ED24308D
:0402D000FF020373B3
:1002F500D3EF9400EE940040147D6E7C00ED1D70EC
:0D030500011CED4C70F7EF1F70E61E80E349
:0103120022C8
:1002300012032F7FE87E031202F5120003050EE57C
:100240000E7002050DAF0CAE0B1201A8C3E50E94A3
:1002500002E50D6480948040DAAF0CAE0B1202B060
:0202600080D14B
:030000000200916A
:0C009100787FE4F6D8FD7581200200D8CD
:10011D00BC000BBE0029EF8DF084FFADF022E4CCC6
:10012D00F875F008EF2FFFEE33FEEC33FCEE9DEC8F
:10013D00984005FCEE9DFE0FD5F0E9E4CEFD22EDD5
:10014D00F8F5F0EE8420D21CFEADF075F008EF2F1F
:10015D00FFED33FD4007985006D5F0F222C398FD10
:05016D000FD5F0EA22AD
:10017200C2D5EC30E709B2D5E4C39DFDE49CFCEEA8
:1001820030E715B2D5E4C39FFFE49EFE12011DC302
:10019200E49DFDE49CFC800312011D30D507C3E4FD
:0601A2009FFFE49EFE2217
:10009D00020230E493A3F8E493A34003F68001F247
:1000AD0008DFF48029E493A3F85407240CC8C33364
:1000BD00C4540F4420C8834004F456800146F6DF33
:1000CD00E4800B010204081020408090035CE47E64
:1000DD00019360BCA3FF543F30E509541FFEE49328
:1000ED00A360010ECF54C025E060A840B8E493A3EF
:1000FD00FAE493A3F8E493A3C8C582C8CAC583CA1A
:10010D00F0A3C8C582C8CAC583CADFE9DEE780BED1
:010368000094
:00000001FF
